:020000040000FA
:100000000C9462000C948A000C948A000C948A0070
:100010000C948A000C948A000C948A000C948A0038
:100020000C948A000C948A000C948A000C948A0028
:100030000C948A000C948A000C948A000C948A0018
:100040000C94D7040C948A000C94A5040C947F049F
:100050000C948A000C948A000C948A000C948A00F8
:100060000C9421050C948A00000000002500280053
:100070002B000000000023002600290000000008DB
:10008000000201000003040700000000000000005F
:1000900000000000240027002A00010204081020AC
:1000A000408001020408102001020408102004040A
:1000B0000404040404040202020202020303030310
:1000C00003033C0611241FBECFEFD8E0DEBFCDBF37
:1000D00012E0A0E0B1E0ECE7F0E102C005900D9283
:1000E000AE38B107D9F723E0AEE8B2E001C01D9207
:1000F000A13BB207E1F710E0C2E6D0E004C02197CF
:10010000FE010E943608C136D107C9F70E94770662
:100110000C943C080C940000AF92BF92CF92DF92F7
:10012000EF92FF920F931F93CF93DF936C017B01AC
:100130008B01040F151FEB015E01AE18BF08C0173D
:10014000D10759F06991D601ED91FC910190F081B0
:10015000E02DC6010995892B79F7C501DF91CF9173
:100160001F910F91FF90EF90DF90CF90BF90AF90D5
:100170000895FC01538D448D252F30E0842F90E0AD
:10018000821B930B541710F0CF9608950197089592
:10019000FC01918D828D981761F0A28DAE0FBF2F5B
:1001A000B11D5D968C91928D9F5F9F73928F90E0B1
:1001B00008958FEF9FEF0895FC01918D828D981720
:1001C00031F0828DE80FF11D858D90E008958FEF5D
:1001D0009FEF0895FC01918D228D892F90E0805C26
:1001E0009F4F821B91098F73992708958BE093E0AD
:1001F0000E94EA0021E0892B09F420E0822F089573
:1002000080E090E0892B29F00E94F60081110C9487
:1002100000000895FC01A48DA80FB92FB11DA35AA9
:10022000BF4F2C91848D90E001968F739927848F16
:10023000A689B7892C93A089B1898C918370806439
:100240008C93938D848D981306C00288F389E02DDA
:1002500080818F7D80830895EF92FF920F931F938B
:10026000CF93DF93EC0181E0888F9B8D8C8D981369
:100270001AC0E889F989808185FF15C09FB7F89475
:10028000EE89FF896083E889F989808183708064C1
:1002900080839FBF81E090E0DF91CF911F910F910C
:1002A000FF90EF900895F62E0B8D10E00F5F1F4F1B
:1002B0000F731127E02E8C8D8E110CC00FB607FC2A
:1002C000FACFE889F989808185FFF5CFCE010E94B8
:1002D0000A01F1CFEB8DEC0FFD2FF11DE35AFF4F1B
:1002E000F0829FB7F8940B8FEA89FB898081806246
:1002F000CFCFCF93DF93EC01888D8823B9F0AA8903
:10030000BB89E889F9898C9185FD03C0808186FDD0
:100310000DC00FB607FCF7CF8C9185FFF2CF80811F
:1003200085FFEDCFCE010E940A01E9CFDF91CF9189
:100330000895833081F028F4813099F08230A9F05B
:1003400008958730A9F08830C9F08430B1F48091E5
:1003500080008F7D03C0809180008F778093800024
:10036000089584B58F7784BD089584B58F7DFBCFC4
:100370008091B0008F778093B00008958091B00095
:100380008F7DF9CFCF93DF93282F30E0F901E45828
:10039000FF4F8491F901E656FF4FD491F901E255E0
:1003A000FF4FC491CC23A1F081110E949901EC2F41
:1003B000F0E0EE0FFF1FEE58FF4FA591B491EC91C6
:1003C000ED2381E090E009F480E0DF91CF91089582
:1003D00080E090E0FACF1F93CF93DF93282F30E097
:1003E000F901E458FF4F8491F901E656FF4FD4918B
:1003F000F901E255FF4FC491CC23A9F0162F8111CA
:100400000E949901EC2FF0E0EE0FFF1FE859FF4F1B
:10041000A591B4918FB7F894EC91111108C0D095C3
:10042000DE23DC938FBFDF91CF911F910895DE2BE8
:10043000F8CFCF93DF9390E0FC01E656FF4F249175
:1004400082559F4FFC0184918823D1F090E0880F62
:10045000991FFC01E057FF4FA591B491FC01E859A9
:10046000FF4FC591D49161110EC09FB7F8948C9144
:10047000E22FE0958E238C932881E223E8839FBFAF
:10048000DF91CF9108958FB7F894EC91E22BEC9324
:100490008FBFF6CF3FB7F894809104039091050386
:1004A000A0910603B091070326B5A89B05C02F3F76
:1004B00019F00196A11DB11D3FBFBA2FA92F982F8A
:1004C0008827BC01CD01620F711D811D911D43E084
:1004D000660F771F881F991F4A95D1F708958F924D
:1004E0009F92AF92BF92CF92DF92EF92FF924B0119
:1004F0005C010E944A026B017C010E944A026C1955
:100500007D098E099F09683E734081059105A8F316
:1005100021E0821A9108A108B10888EEC80E83E094
:10052000D81EE11CF11C81149104A104B10429F727
:10053000FF90EF90DF90CF90BF90AF909F908F9003
:1005400008952091B502260F3327331F213231053C
:10055000ECF42091D902FC0190E080E0243069F0B5
:1005600082E00895A091B5022191AC014B565D4FF8
:10057000A40FB52FB11D2C930196861798F3809187
:10058000B502680F6093B50280E0089581E0089598
:1005900008958FEF9FEF08958FEF9FEF089580915B
:1005A0008E0290E09195819591090895CF93DF9304
:1005B000CB01EA01642F0E94A102CE01DF91CF910D
:1005C0000895CF93DF931F92CDB7DEB7698361E0C3
:1005D000CE0101960E94A10281E090E00F90DF9190
:1005E000CF91089590E080E008958EBD00000DB495
:1005F00007FEFDCF8EB50895FC0101900020E9F7BC
:100600003197AF01481B590BBC018BE093E00C9470
:100610008C00CF93DF930E94FC02EC018BE191E010
:100620000E94FC028C0F9D1FDF91CF9108950C94C6
:10063000FC020F931F93CF93C0E000E610E081E12E
:100640000E94C201019749F4CC2301F18EE191E0AF
:10065000CF911F910F910C94170383E291E0CC236B
:1006600011F083E391E00E941703C8010197F1F7AD
:10067000CF5FC83C21F785E391E00E94090361E068
:1006800070E080E090E00E946F02F9CFCF911F915F
:100690000F910895AF92BF92CF92DF92EF92FF92A7
:1006A0000F931F93CF93DF93C82F5B01C42E790163
:1006B0002091A9039091AA0380910A03882361F0F5
:1006C0008FB7F89430910A03313031F53DB3309350
:1006D00009033DB33DBB8FBF2CBD9DBD0E941903D7
:1006E00060E08AE00E94EB018C2F0E94F50281E11C
:1006F0000E94C201892B21F488E491E00E94170333
:10070000E501D12CCE018A199B098C159D053CF47D
:1007100089910E94F502F6CF80930903DDCF61E055
:100720008AE00E94EB01002309F457C089E591E0BB
:100730000E9417030E94190360E08AE00E94EB0107
:1007400084E40E94F50281E10E94C201892B21F418
:1007500088E491E00E9417038FEF0E94F502C82FF2
:1007600010E0CF3F69F4E70110E0CE018E199F0938
:100770008017910724F580E00E94F5028993F5CF58
:1007800088E691E0112311F083E391E00E941703C2
:1007900064E670E080E090E00E946F021F5F143614
:1007A00001F78FE791E0DF91CF911F910F91FF90BB
:1007B000EF90DF90CF90BF90AF900C94090361E071
:1007C0008AE0DF91CF911F910F91FF90EF90DF9022
:1007D000CF90BF90AF900C94EB010E9419038091D1
:1007E0000A03882351F09FB7F89420910A0380915F
:1007F0000903213069F48DBB9FBFDF91CF911F9119
:100800000F91FF90EF90DF90CF90BF90AF90089541
:100810008FBFF3CF1F93CF93DF9385ED8093BC0001
:100820008091910290919202A0919302B0919402D2
:100830000796A11DB11D23E0B695A79597958795BD
:100840002A95D1F72091BC0024FD03C01092D90253
:1008500052C0409191025091920260919302709126
:100860009402452B462B472B69F30097A105B10550
:1008700041F02AE12A95F1F700C00197A109B109D9
:10088000E1CF80919002C1E0C0938F02882399F15B
:10089000D091B8001091BA008091BC008A7B8093FF
:1008A000BC0060E082E10E94EB0160E083E10E9415
:1008B000EB011092D902C093DB021092DA0261E0E0
:1008C00082E10E94EB0161E083E10E94EB018091F3
:1008D000B9008E7F8093B9008091B9008D7F80939D
:1008E000B90080E28093B80085E48093BC00109347
:1008F000BA00D093B800DF91CF911F9108951F9255
:100900000F920FB60F9211242F933F934F935F9343
:100910006F937F938F939F93AF93BF93EF93FF93C7
:100920008BE093E00E940A01FF91EF91BF91AF919C
:100930009F918F917F916F915F914F913F912F91F7
:100940000F900FBE0F901F9018951F920F920FB629
:100950000F9211242F938F939F93EF93FF93E09126
:100960001B03F0911C038081E0912103F09122038D
:1009700082FD1BC09081809124038F5F8F73209133
:100980002503821741F0E0912403F0E0E55FFC4F7E
:10099000958F80932403FF91EF919F918F912F91D9
:1009A0000F900FBE0F901F9018958081F4CF1F926B
:1009B0000F920FB60F9211242F933F938F939F9313
:1009C000AF93BF938091000390910103A091020324
:1009D000B09103033091FF0226E0230F2D3758F525
:1009E0000296A11DB11D2093FF02809300039093F6
:1009F0000103A0930203B093030380910403909139
:100A00000503A0910603B09107030196A11DB11D36
:100A10008093040390930503A0930603B093070308
:100A2000BF91AF919F918F913F912F910F900FBEEA
:100A30000F901F90189529E8230F0396A11DB11D53
:100A4000D2CF1F920F920FB60F9211242F933F9384
:100A50004F935F936F937F938F939F93AF93BF93C6
:100A6000EF93FF938091B900887F803609F44AC0E4
:100A7000F0F5883209F4A5C018F5803109F499C061
:100A8000B8F4882309F4F5C0883009F492C0FF91C6
:100A9000EF91BF91AF919F918F917F916F915F91F6
:100AA0004F913F912F910F900FBE0F901F9018956F
:100AB000883109F486C0803251F78093D80214C07F
:100AC000803409F49BC040F48033B9F38833F9F6DD
:100AD0008093D80285ECAEC0803509F483C0883598
:100AE00009F494C0883499F60E940A04D0CF88395A
:100AF00009F48AC038F5883729F050F4883611F0A7
:100B0000803729F683E08093D9021092D70255C02E
:100B1000883809F479C0803919F0803809F0B7CFE6
:100B20008091D702803208F06FC0E091D70281E057
:100B30008E0F8093D7028091BB00F0E0E954FD4F07
:100B400080833BC0803B39F0D0F4803A09F477C011
:100B5000883A09F09CCF84E08093D9021092B602C3
:100B60001092B502F0E0E0E009958091B5028111A4
:100B70000FC081E08093B5021092950209C0803CBD
:100B800009F4A8CF883C09F4A5CF883B09F07FCFB2
:100B9000E091B60281E08E0F8093B602F0E0EB5652
:100BA000FD4F80818093BB009091B6028091B50289
:100BB00029C08091FE028093BB0085EC8093BC002D
:100BC00066CF9091FD028091FC02981758F5E09154
:100BD000FD0281E08E0F8093FD02F0E0E452FD4FB4
:100BE0008081E9CFE091FD0281E08E0F8093FD02CC
:100BF0008091BB00F0E0E452FD4F80839091FD02B4
:100C00008091FC029817C8F285E8D8CFE091FD02E8
:100C100081E08E0F8093FD028091BB00F0E0E452F2
:100C2000FD4F80838091DB0281115ECF81E0809354
:100C3000DA0284EA8093BC001092D90228CF85ECB6
:100C40008093BC001092D9028091D702803230F498
:100C5000E091D702F0E0E954FD4F10826091D70295
:100C600070E087EB92E0F0E0E0E009951092D702A7
:100C70000ECF1092D80238CFEBE0F3E0138212824D
:100C800088EE93E0A0E0B0E084839583A683B783E9
:100C90008DE091E09183808385EC90E09587848757
:100CA00084EC90E09787868780EC90E0918B808B36
:100CB00081EC90E0938B828B82EC90E0958B848B1F
:100CC00086EC90E0978B868B118E128E138E148E8D
:100CD000E8EAF3E083E58183128286E0E0E0F1E078
:100CE000ABEAB3E001900D928A95E1F70895CF93B6
:100CF000DF93CDB7DEB7A9970FB6F894DEBF0FBE6E
:100D0000CDBF789484B5826084BD84B5816084BD94
:100D100085B5826085BD85B5816085BD80916E0099
:100D2000816080936E0010928100809181008260CA
:100D30008093810080918100816080938100809107
:100D400080008160809380008091B10084608093F6
:100D5000B1008091B00081608093B00080917A00F2
:100D6000846080937A0080917A00826080937A0018
:100D700080917A008E7F80937A0080917A008068DB
:100D800080937A001092C100E0911B03F0911C0344
:100D900082E08083E0911703F09118031082E091C4
:100DA0001903F0911A0380E1808310922303E091EC
:100DB0001F03F091200386E08083E0911D03F091F2
:100DC0001E03808180618083E0911D03F0911E03EA
:100DD000808188608083E0911D03F0911E038081F3
:100DE00080688083E0911D03F0911E0380818F7DD8
:100DF00080838BE191E00E94FC0283E991E00E94F4
:100E0000090360E080E10E94190260E081E10E9434
:100E1000190261E085E00E94190261E08AE00E9407
:100E2000190261E085E00E94EB0161E08AE00E9426
:100E3000EB011FB7F89480910803811127C0E8EBFC
:100E4000F0E08491E4EAF0E09491E82FF0E0EE0F16
:100E5000FF1FE057FF4FA591B491EC91E92321F4D6
:100E600061E08AE00E94EB0161E08AE00E941902E1
:100E70008CB580618CBD8CB580648CBD61E08DE0EB
:100E80000E94190261E08BE00E9419028091080320
:100E90008F5F809308031FBF80EA91E00E941703D1
:100EA00061E085E00E94EB0180E190E00197F1F7BD
:100EB00060E085E00E94EB0188E190E00197F1F7A6
:100EC0000E94190383EB91E00E9409038CEB91E0EF
:100ED0000E94170300E030E020E046E06BEA73E098
:100EE00082E00E944A038AEC91E00E94090385EDAA
:100EF00091E00E94170308E09E012E5D3F4F40E005
:100F000070E060E081E00E944A030BA11CA1102761
:100F100001271027023683E4180709F45CC088EE25
:100F200091E00E941703A80170E060E019A2CE01D1
:100F300081968A019B010F7011272227332724E015
:100F400076956795579547952A95D1F70A300CF015
:100F500040C0005DFC010293CF01411551056105C0
:100F6000710539F7EF2B11F00E94FC0260ED77E07C
:100F700080E090E00E946F029FB7F8948091080390
:100F8000882319F081508093080380910803811110
:100F900005C08CB58F7B8CBD10920A039FBF61E0AA
:100FA00085E00E94EB0100E010E068E873E180E07A
:100FB00090E00E946F0287E892E00E9417030115FB
:100FC000110599F30E94F600882379F30E9400002E
:100FD000ECCF095CBFCF81E092E00E94090380E181
:100FE0000E94C201892BE9F58091060190910701C9
:100FF000A091080189839A83AB838EE092E00E94DE
:10100000170300E030E020E043E0BE016F5F7F4F58
:1010100080E20E944A0380E10E94C201892B29F0EC
:1010200084E292E00E940903A1CF8BE392E00E9448
:10103000170319821A821B8200E030E020E043E0AF
:10104000BE016F5F7F4F80E20E944A0380E10E94F1
:10105000C201019719F082E592E0E4CF8AE692E0BE
:10106000E1CF82E792E00E94170380CFEE0FFF1FCF
:101070000590F491E02D0994F894FFCF010001C987
:10108000C3807FFFFF000000002C018C00B90079B5
:1010900001EA00C800DC000D0A006F6B3B200077FE
:1010A000616974696E6720666F7220435453202E05
:1010B0000043545320646964206E6F742072657419
:1010C00075726E006368697020726573706F6E640C
:1010D00065643B200072656164696E6720626163CC
:1010E0006B3B200077616974696E6720666F7220C0
:1010F000726573706F6E7365202E005350492064C3
:101100006964206E6F7420726573706F6E64007313
:1011100064722D7061676572207570005265736529
:101120007474696E67205369343336323A2000662E
:10113000696E697368656400506F776572696E6780
:101140002075703A2000706F776572656420757045
:101150000047657474696E67207061727420696EEF
:10116000666F3A006368697020696420697320774C
:10117000726F6E672C20676F7420307800666F7511
:101180006E642053693433363200436C6561726992
:101190006E6720696E74657272757074733A2000A0
:1011A000696E7465727275707473206469646E27F9
:1011B000742073746179006E6F70206F6B2C206ED9
:1011C0006F7720636C656172696E673A2000696EA3
:1011D0007465727275707473206469646E2774200C
:1011E000636C65617200636C6561726564004E6F6B
:1011F00020696E74657272757074207369676E61B0
:0A1200006C2100626F6F7020000087
:107800000C94343C0C94513C0C94513C0C94513CE1
:107810000C94513C0C94513C0C94513C0C94513CB4
:107820000C94513C0C94513C0C94513C0C94513CA4
:107830000C94513C0C94513C0C94513C0C94513C94
:107840000C94513C0C94513C0C94513C0C94513C84
:107850000C94513C0C94513C0C94513C0C94513C74
:107860000C94513C0C94513C11241FBECFEFD8E036
:10787000DEBFCDBF11E0A0E0B1E0EAE8FFE702C063
:1078800005900D92A230B107D9F712E0A2E0B1E065
:1078900001C01D92AD30B107E1F70E942D3D0C945F
:1078A000C33F0C94003C982F95959595959595958B
:1078B000905D8F708A307CF0282F295A8091C0000B
:1078C00085FFFCCF9093C6008091C00085FFFCCF60
:1078D0002093C6000895282F205DF0CF982F809127
:1078E000C00085FFFCCF9093C6000895EF92FF92F1
:1078F0000F931F93EE24FF2487018091C00087FD22
:1079000017C00894E11CF11C011D111D81E2E8164D
:1079100081EAF80687E0080780E0180770F3E09135
:107920000401F091050109958091C00087FFE9CF1E
:107930008091C6001F910F91FF90EF9008950E94D3
:10794000763C982F8091C00085FFFCCF9093C600B5
:1079500091362CF490330CF09053892F089597555D
:10796000892F08951F930E949F3C182F0E949F3CCF
:107970001295107F810F1F9108951F93182F882350
:1079800021F00E94763C1150E1F71F9108951F935A
:10799000182F0E94763C803249F0809103018F5F5E
:1079A000809303018530C1F01F9108958091C0003C
:1079B00085FFFCCF84E18093C6008091C00085FFE5
:1079C000FCCF1093C6008091C00085FFFCCF80E102
:1079D0008093C6001F910895E0910401F091050184
:1079E00009951F9108950E94763C803241F0809164
:1079F00003018F5F80930301853081F008958091AA
:107A0000C00085FFFCCF84E18093C6008091C00058
:107A100085FFFCCF80E18093C6000895E0910401CA
:107A2000F09105010995089548EC50E08823A1F0F4
:107A30002D9A28EE33E0FA013197F1F721503040CA
:107A4000D1F72D9828EE33E0FA013197F1F7215064
:107A50003040D1F7815061F708953F924F925F9285
:107A60006F927F928F929F92AF92BF92CF92DF924E
:107A7000EF92FF920F931F93CF93DF93000082E06A
:107A80008093C00080E18093C4001092C50088E11B
:107A90008093C10086E08093C2005098589A259A3E
:107AA00081E00E94143D24E1F22E9EE1E92E85E959
:107AB000D82E0FE0C02E10E1B12EAA24A394B1E479
:107AC0009B2EA6E58A2EF2E57F2EE0E26E2E79E46B
:107AD000572E63E5462E50E5352E0E94763C8033C6
:107AE000B1F18133B9F1803409F46FC0813409F404
:107AF00076C0823409F485C0853409F488C08035A5
:107B000031F1823521F1813511F1853509F485C0D6
:107B1000863509F48DC0843609F496C0843709F49B
:107B200003C1853709F472C1863709F466C08091B4
:107B300003018F5F80930301853079F6E0910401A2
:107B4000F091050109950E94763C803351F60E9420
:107B5000F33CC3CF0E94763C803249F78091C0004D
:107B600085FFFCCFF092C6008091C00085FFFCCF5E
:107B70009092C6008091C00085FFFCCF8092C60025
:107B80008091C00085FFFCCF7092C6008091C0003C
:107B900085FFFCCF6092C6008091C00085FFFCCFBE
:107BA0005092C6008091C00085FFFCCF4092C60075
:107BB0008091C00085FFFCCF3092C6008091C0004C
:107BC00085FFFCCFB092C60088CF0E94763C8638F5
:107BD00008F4BDCF0E94763C0E94F33C7ECF0E9409
:107BE000763C803809F49CC0813809F40BC1823896
:107BF00009F430C1883909F48FC080E00E94C73C85
:107C00006CCF84E10E94BD3C0E94F33C66CF85E0CE
:107C10000E94BD3C0E94F33C60CF0E94763C809362
:107C200006010E94763C809307010E94F33C55CFE9
:107C30000E94763C803309F411C183E00E94BD3C70
:107C400080E00E94C73C49CF0E94763C80930902A5
:107C50000E94763C8093080280910C028E7F809374
:107C60000C020E94763C853409F409C18091080217
:107C700090910902892B89F000E010E00E94763C87
:107C8000F801E85FFE4F80830F5F1F4F809108026D
:107C9000909109020817190788F30E94763C8032F8
:107CA00009F045CF80910C0280FFF5C0609106017C
:107CB00070910701660F771F7093070160930601AB
:107CC000A0910802B09109021097C9F0E8E0F1E034
:107CD0009B01AD014E0F5F1FF999FECF32BD21BD53
:107CE000819180BDFA9AF99A2F5F3F4FE417F5070B
:107CF00099F76A0F7B1F70930701609306018091CB
:107D0000C00085FFFCCFF092C6008091C00085FFC7
:107D1000FCCFB092C600E1CE83E00E94C73CDDCE2E
:107D200082E00E94C73CD9CE0E94763C8093090233
:107D30000E94763C80930802809106019091070191
:107D4000880F991F90930701809306010E94763C4B
:107D5000853409F49AC080910C028E7F80930C02C6
:107D60000E94763C803209F0B8CE8091C00085FF39
:107D7000FCCFF092C600A0910802B09109021097C2
:107D8000C1F180910C02082F0170182F1695117007
:107D9000E0910601F0910701AF014F5F5F4FBA011B
:107DA00020E030E00023B1F4112339F49491809164
:107DB000C00085FFFCCF9093C6002F5F3F4FCB01E3
:107DC0000196FA012A173B0780F4BC014F5F5F4F11
:107DD000002351F3F999FECFF2BDE1BDF89A90B5B9
:107DE0008091C00085FFFCCFE6CF709307016093C0
:107DF00006018091C00085FDE5CE8091C00085FF21
:107E0000F8CFE0CE81E00E94C73C67CE0E94763C6E
:107E1000803209F08CCE8091C00085FFFCCFF092BB
:107E2000C6008091C00085FFFCCFE092C600809123
:107E3000C00085FFFCCFD092C6008091C00085FFB6
:107E4000FCCFC092C6008091C00085FFFCCFB092ED
:107E5000C60043CE80E10E94C73C3FCE0E94763CE4
:107E60000E94763C182F0E94763C112309F483C0AF
:107E7000113009F484C08FE00E94C73C2ECE80915F
:107E80000C02816080930C02F1CE80910C02816023
:107E900080930C0265CF809107018823880F880B9F
:107EA0008A2180930B028091060190910701880F2F
:107EB000991F90930701809306018091080280FF2B
:107EC00009C08091080290910902019690930902DD
:107ED00080930802F894F999FECF1127E0910601EA
:107EE000F0910701C8E0D1E0809108029091090269
:107EF000103091F40091570001700130D9F303E084
:107F000000935700E8950091570001700130D9F3B4
:107F100001E100935700E8950990199000915700EE
:107F200001700130D9F301E000935700E8951395F3
:107F3000103498F011270091570001700130D9F3E7
:107F400005E000935700E89500915700017001305B
:107F5000D9F301E100935700E8953296029709F0B2
:107F6000C7CF103011F00296E5CF11248091C000E8
:107F700085FFC5CEC8CE8EE10E94C73CAECD85E957
:0C7F80000E94C73CAACDF894FFCF8000FF
:00000001FF
