:020000040000FA
:100000000C9462000C948A000C948A000C948A0070
:100010000C948A000C948A000C948A000C948A0038
:100020000C948A000C948A000C948A000C948A0028
:100030000C948A000C948A000C948A000C948A0018
:100040000C9435040C948A000C9403040C94DD0386
:100050000C948A000C948A000C948A000C948A00F8
:100060000C947F040C948A000000000025002800F6
:100070002B000000000023002600290000000008DB
:10008000000201000003040700000000000000005F
:1000900000000000240027002A00010204081020AC
:1000A000408001020408102001020408102004040A
:1000B0000404040404040202020202020303030310
:1000C00003039A0511241FBECFEFD8E0DEBFCDBFDA
:1000D00012E0A0E0B1E0E6E3F0E102C005900D928D
:1000E000A034B107D9F723E0A0E4B2E001C01D922B
:1000F000A336B207E1F710E0C2E6D0E004C02197D2
:10010000FE010E941308C136D107C9F70E94D50528
:100110000C9419080C940000AF92BF92CF92DF921A
:10012000EF92FF920F931F93CF93DF936C017B01AC
:100130008B01040F151FEB015E01AE18BF08C0173D
:10014000D10759F06991D601ED91FC910190F081B0
:10015000E02DC6010995892B79F7C501DF91CF9173
:100160001F910F91FF90EF90DF90CF90BF90AF90D5
:100170000895FC01538D448D252F30E0842F90E0AD
:10018000821B930B541710F0CF9608950197089592
:10019000FC01918D828D981761F0A28DAE0FBF2F5B
:1001A000B11D5D968C91928D9F5F9F73928F90E0B1
:1001B00008958FEF9FEF0895FC01918D828D981720
:1001C00031F0828DE80FF11D858D90E008958FEF5D
:1001D0009FEF0895FC01918D228D892F90E0805C26
:1001E0009F4F821B91098F73992708958DEB92E0A1
:1001F0000E94EA0021E0892B09F420E0822F089573
:1002000080E090E0892B29F00E94F60081110C9487
:1002100000000895FC01A48DA80FB92FB11DA35AA9
:10022000BF4F2C91848D90E001968F739927848F16
:10023000A689B7892C93A089B1898C918370806439
:100240008C93938D848D981306C00288F389E02DDA
:1002500080818F7D80830895EF92FF920F931F938B
:10026000CF93DF93EC0181E0888F9B8D8C8D981369
:100270001AC0E889F989808185FF15C09FB7F89475
:10028000EE89FF896083E889F989808183708064C1
:1002900080839FBF81E090E0DF91CF911F910F910C
:1002A000FF90EF900895F62E0B8D10E00F5F1F4F1B
:1002B0000F731127E02E8C8D8E110CC00FB607FC2A
:1002C000FACFE889F989808185FFF5CFCE010E94B8
:1002D0000A01F1CFEB8DEC0FFD2FF11DE35AFF4F1B
:1002E000F0829FB7F8940B8FEA89FB898081806246
:1002F000CFCFCF93DF93EC01888D8823B9F0AA8903
:10030000BB89E889F9898C9185FD03C0808186FDD0
:100310000DC00FB607FCF7CF8C9185FFF2CF80811F
:1003200085FFEDCFCE010E940A01E9CFDF91CF9189
:100330000895833081F028F4813099F08230A9F05B
:1003400008958730A9F08830C9F08430B1F48091E5
:1003500080008F7D03C0809180008F778093800024
:10036000089584B58F7784BD089584B58F7DFBCFC4
:100370008091B0008F778093B00008958091B00095
:100380008F7DF9CFCF93DF93282F30E0F901E45828
:10039000FF4F8491F901E656FF4FD491F901E255E0
:1003A000FF4FC491CC23A1F081110E949901EC2F41
:1003B000F0E0EE0FFF1FEE58FF4FA591B491EC91C6
:1003C000ED2381E090E009F480E0DF91CF91089582
:1003D00080E090E0FACF1F93CF93DF93282F30E097
:1003E000F901E458FF4F8491F901E656FF4FD4918B
:1003F000F901E255FF4FC491CC23A9F0162F8111CA
:100400000E949901EC2FF0E0EE0FFF1FE859FF4F1B
:10041000A591B4918FB7F894EC91111108C0D095C3
:10042000DE23DC938FBFDF91CF911F910895DE2BE8
:10043000F8CFCF93DF9390E0FC01E656FF4F249175
:1004400082559F4FFC0184918823D1F090E0880F62
:10045000991FFC01E057FF4FA591B491FC01E859A9
:10046000FF4FC591D49161110EC09FB7F8948C9144
:10047000E22FE0958E238C932881E223E8839FBFAF
:10048000DF91CF9108958FB7F894EC91E22BEC9324
:100490008FBFF6CF3FB7F8948091B7029091B80222
:1004A000A091B902B091BA0226B5A89B05C02F3F12
:1004B00019F00196A11DB11D3FBFBA2FA92F982F8A
:1004C0008827BC01CD01620F711D811D911D43E084
:1004D000660F771F881F991F4A95D1F708958F924D
:1004E0009F92AF92BF92CF92DF92EF92FF924B0119
:1004F0005C010E944A026B017C010E944A026C1955
:100500007D098E099F09683E734081059105A8F316
:1005100021E0821A9108A108B10888EEC80E83E094
:10052000D81EE11CF11C81149104A104B10429F727
:10053000FF90EF90DF90CF90BF90AF909F908F9003
:10054000089520916802260F3327331F2132310589
:10055000ECF420918C02FC0190E080E0243069F002
:1005600082E00895A09168022191AC01485B5D4F43
:10057000A40FB52FB11D2C930196861798F3809187
:100580006802680F6093680280E0089581E0089532
:1005900008958FEF9FEF08958FEF9FEF089580915B
:1005A000410290E09195819591090895CF93DF9351
:1005B000CB01EA01642F0E94A102CE01DF91CF910D
:1005C0000895CF93DF931F92CDB7DEB7698361E0C3
:1005D000CE0101960E94A10281E090E00F90DF9190
:1005E000CF91089590E080E008958091BB02882328
:1005F00061F09FB7F8942091BB02809140022130B6
:1006000019F48DBB9FBF08958FBF08958EBD000064
:100610000DB407FEFDCF8EB508952091BB022223B5
:1006200061F02FB7F8943091BB02313049F43DB3FB
:10063000309340023DB33DBB2FBF8CBD9DBD08959F
:1006400020934002FACFFC0101900020E9F7319796
:10065000AF01481B590BBC018DEB92E00C948C0050
:10066000CF93DF930E942303EC0188E191E00E9485
:1006700023038C0F9D1FDF91CF9108950C942303CA
:100680000F931F93CF93C0E000E610E081E10E943A
:10069000C2010197C9F08BE191E0CC2311F088E20F
:1006A00091E00E943E03C8010197F1F7CF5FC43685
:1006B00069F78AE291E00E94300361E070E080E037
:1006C00090E00E946F02F9CFCF911F910F91089592
:1006D0001F93CF93DF9385ED8093BC0080914402FC
:1006E00090914502A0914602B09147020796A11D44
:1006F000B11D23E0B695A795979587952A95D1F7D3
:100700002091BC0024FD03C010928C0252C0409185
:100710004402509145026091460270914702452B78
:10072000462B472B69F30097A105B10541F02AE15B
:100730002A95F1F700C00197A109B109E1CF809195
:100740004302C1E0C0934202882399F1D091B800DE
:100750001091BA008091BC008A7B8093BC0060E05D
:1007600082E10E94EB0160E083E10E94EB011092C4
:100770008C02C0938E0210928D0261E082E10E9491
:10078000EB0161E083E10E94EB018091B9008E7F73
:100790008093B9008091B9008D7F8093B90080E289
:1007A0008093B80085E48093BC001093BA00D09386
:1007B000B800DF91CF911F9108951F920F920FB64D
:1007C0000F9211242F933F934F935F936F937F93D7
:1007D0008F939F93AF93BF93EF93FF938DEB92E033
:1007E0000E940A01FF91EF91BF91AF919F918F916C
:1007F0007F916F915F914F913F912F910F900FBE1D
:100800000F901F9018951F920F920FB60F92112400
:100810002F938F939F93EF93FF93E091CD02F091ED
:10082000CE028081E091D302F091D40282FD1BC000
:1008300090818091D6028F5F8F732091D7028217AB
:1008400041F0E091D602F0E0E354FD4F958F8093A4
:10085000D602FF91EF919F918F912F910F900FBE34
:100860000F901F9018958081F4CF1F920F920FB6B2
:100870000F9211242F933F938F939F93AF93BF9326
:100880008091B3029091B402A091B502B091B602EA
:100890003091B20226E0230F2D3758F50296A11DA4
:1008A000B11D2093B2028093B3029093B402A0933F
:1008B000B502B093B6028091B7029091B802A091B0
:1008C000B902B091BA020196A11DB11D8093B70281
:1008D0009093B802A093B902B093BA02BF91AF91BE
:1008E0009F918F913F912F910F900FBE0F901F906E
:1008F000189529E8230F0396A11DB11DD2CF1F9291
:100900000F920FB60F9211242F933F934F935F9343
:100910006F937F938F939F93AF93BF93EF93FF93C7
:100920008091B900887F803609F44AC0F0F588329A
:1009300009F4A5C018F5803109F499C0B8F48823EA
:1009400009F4F5C0883009F492C0FF91EF91BF918E
:10095000AF919F918F917F916F915F914F913F9157
:100960002F910F900FBE0F901F901895883109F4AA
:1009700086C0803251F780938B0214C0803409F412
:100980009BC040F48033B9F38833F9F680938B022F
:1009900085ECAEC0803509F483C0883509F494C075
:1009A000883499F60E946803D0CF883909F48AC048
:1009B00038F5883729F050F4883611F0803729F659
:1009C00083E080938C0210928A0255C0883809F423
:1009D00079C0803919F0803809F0B7CF80918A0248
:1009E000803208F06FC0E0918A0281E08E0F809320
:1009F0008A028091BB00F0E0E659FD4F80833BC046
:100A0000803B39F0D0F4803A09F477C0883A09F095
:100A10009CCF84E080938C0210926902109268024D
:100A2000F0E0E0E009958091680281110FC081E05B
:100A3000809368021092480209C0803C09F4A8CF54
:100A4000883C09F4A5CF883B09F07FCFE09169028B
:100A500081E08E0F80936902F0E0E85BFD4F8081BA
:100A60008093BB00909169028091680229C08091B7
:100A7000B1028093BB0085EC8093BC0066CF90915F
:100A8000B0028091AF02981758F5E091B00281E072
:100A90008E0F8093B002F0E0E157FD4F8081E9CFE7
:100AA000E091B00281E08E0F8093B0028091BB0094
:100AB000F0E0E157FD4F80839091B0028091AF024A
:100AC0009817C8F285E8D8CFE091B00281E08E0F88
:100AD0008093B0028091BB00F0E0E157FD4F80832E
:100AE00080918E0281115ECF81E080938D0284EA35
:100AF0008093BC0010928C0228CF85EC8093BC00C0
:100B000010928C0280918A02803230F4E0918A0245
:100B1000F0E0E659FD4F108260918A0270E08AE6AB
:100B200092E0F0E0E0E0099510928A020ECF109278
:100B30008B0238CFEDEBF2E01382128288EE93E065
:100B4000A0E0B0E084839583A683B7838AE091E038
:100B50009183808385EC90E09587848784EC90E096
:100B60009787868780EC90E0918B808B81EC90E07A
:100B7000938B828B82EC90E0958B848B86EC90E05B
:100B8000978B868B118E128E138E148EEAE5F3E00E
:100B900083E58183128286E0E0E0F1E0ADE5B3E039
:100BA00001900D928A95E1F70895CF93DF93CDB729
:100BB000DEB7A9970FB6F894DEBF0FBECDBF78940D
:100BC00084B5826084BD84B5816084BD85B5826052
:100BD00085BD85B5816085BD80916E008160809303
:100BE0006E0010928100809181008260809381006C
:100BF000809181008160809381008091800081607C
:100C0000809380008091B10084608093B1008091D6
:100C1000B00081608093B00080917A0084608093FE
:100C20007A0080917A00826080937A0080917A00C5
:100C30008E7F80937A0080917A00806880937A001A
:100C40001092C100E091CD02F091CE0282E080834B
:100C5000E091C902F091CA021082E091CB02F091BA
:100C6000CC0280E180831092D502E091D102F09114
:100C7000D20286E08083E091CF02F091D0028081A1
:100C800080618083E091CF02F091D0028081886002
:100C90008083E091CF02F091D002808180688083D0
:100CA000E091CF02F091D00280818F7D808388E136
:100CB00091E00E9423038DE391E00E94300360E005
:100CC00080E10E94190260E081E10E94190261E066
:100CD00085E00E94190261E08AE00E94190261E049
:100CE00085E00E94EB0161E08AE00E94EB011FB702
:100CF000F8948091BC02811127C0E8EBF0E0849168
:100D0000E4EAF0E09491E82FF0E0EE0FFF1FE057E7
:100D1000FF4FA591B491EC91E92321F461E08AE0C1
:100D20000E94EB0161E08AE00E9419028CB58061AB
:100D30008CBD8CB580648CBD61E08DE00E94190291
:100D400061E08BE00E9419028091BC028F5F80936A
:100D5000BC021FBF8AE491E00E943E0361E085E08F
:100D60000E94190261E085E00E94EB0180E190E0C1
:100D70000197F1F760E085E00E94EB0188E190E0E7
:100D80000197F1F70E9440038DE591E00E94300346
:100D900080E10E94C201892B21F480E791E00E944A
:100DA000300380915B0390915C030E940D0360E02F
:100DB0008AE00E94EB0182E00E9406038DE791E049
:100DC0000E943E0381E10E94C201892B21F488E840
:100DD00091E00E943E030DE513E033E6E32E33E09D
:100DE000F32EE016F10631F0F80181918F010E9497
:100DF0000603F7CF61E08AE00E94EB010E94F50252
:100E00000E94400389E991E00E94300380E10E9442
:100E1000C201892B09F03FC080915B0390915C0374
:100E20000E940D0360E08AE00E94EB0180E20E94D4
:100E3000060384EA91E00E943E0381E10E94C20120
:100E4000892B21F488E891E00E943E0380E00E9413
:100E5000060380E00E94060380E00E94060361E032
:100E60008AE00E94EB010E94F5020E94400380E1AB
:100E70000E94C201019759F087EB91E00E94300374
:100E800061E070E080E090E00E946F02F9CF8FECAB
:100E900091E00E9430030E94400380915B03909197
:100EA0005C030E940D0360E08AE00E94EB0181E098
:100EB0000E94060387ED91E00E943E0361E08AE014
:100EC0000E94EB010E94400360E08AE00E94EB0177
:100ED00084E40E94060310E08FEF0E9406038F3F18
:100EE00089F48E010E5D1F4F7E01FAE2EF0EF11CB8
:100EF0000E151F0519F180E00E940603F801819389
:100F00008F01F6CF87EE91E0112311F088E291E096
:100F10000E943E0364E670E080E090E00E946F0271
:100F20001F5F1436C9F68EEF91E00E94300361E036
:100F300070E080E090E00E946F02F9CF61E08AE00B
:100F40000E94EB010E94F5020BA11CA110270127B2
:100F5000102781E192E00236F3E41F0749F18EE1A8
:100F600092E00E943E03A80170E060E019A2CE0169
:100F700081968A019B010F7011272227332724E0D5
:100F800076956795579547952A95D1F70A300CF0D5
:100F900048C0005DFC010293CF0141155105610578
:100FA000710539F7EF2B11F00E94230380E392E0E3
:100FB0000E94300360ED77E080E090E00E946F02D5
:100FC0009FB7F8948091BC02882319F081508093D8
:100FD000BC028091BC02811105C08CB58F7B8CBD99
:100FE0001092BB029FBF61E085E00E94190261E0A0
:100FF00085E00E94EB0100E010E068E873E180E02A
:1010000090E00E946F0289E392E00E943E03011586
:10101000110599F30E94F600882379F30E940000DD
:10102000ECCF095CB7CFEE0FFF1F0590F491E02DD8
:101030000994F894FFCF010001C9C38000000000AB
:101040002C018C00B9007901EA00C800DC000D0A0F
:10105000005761697420666F7220435453202E003C
:1010600043545320646964206E6F742072657475F4
:10107000726E007364722D70616765722075700006
:10108000526573657474696E672053693433363200
:101090003A200072657365742073756363657373BA
:1010A00066756C6C7900696E7465727275707473B4
:1010B0003B2000506F7765722075703A20004368BE
:1010C000697020726573706F6E6465643B20007098
:1010D0006F776572656420757000436C656172207E
:1010E000696E74657272757074733A2000696E74FB
:1010F00065727275707473206469646E27742063FE
:101100006C65617200636C6561726564004765744B
:10111000207061727420696E666F3A2000576169B1
:101120007420666F7220435453206F76657220538B
:1011300050492E0053504920646964206E6F74201A
:1011400072657475726E00666F756E6420536934D3
:1011500033363200636869702069642077726F6E7D
:10116000672C20307800213D3078343336320062ED
:061170006F6F702000000B
:107800000C94343C0C94513C0C94513C0C94513CE1
:107810000C94513C0C94513C0C94513C0C94513CB4
:107820000C94513C0C94513C0C94513C0C94513CA4
:107830000C94513C0C94513C0C94513C0C94513C94
:107840000C94513C0C94513C0C94513C0C94513C84
:107850000C94513C0C94513C0C94513C0C94513C74
:107860000C94513C0C94513C11241FBECFEFD8E036
:10787000DEBFCDBF11E0A0E0B1E0EAE8FFE702C063
:1078800005900D92A230B107D9F712E0A2E0B1E065
:1078900001C01D92AD30B107E1F70E942D3D0C945F
:1078A000C33F0C94003C982F95959595959595958B
:1078B000905D8F708A307CF0282F295A8091C0000B
:1078C00085FFFCCF9093C6008091C00085FFFCCF60
:1078D0002093C6000895282F205DF0CF982F809127
:1078E000C00085FFFCCF9093C6000895EF92FF92F1
:1078F0000F931F93EE24FF2487018091C00087FD22
:1079000017C00894E11CF11C011D111D81E2E8164D
:1079100081EAF80687E0080780E0180770F3E09135
:107920000401F091050109958091C00087FFE9CF1E
:107930008091C6001F910F91FF90EF9008950E94D3
:10794000763C982F8091C00085FFFCCF9093C600B5
:1079500091362CF490330CF09053892F089597555D
:10796000892F08951F930E949F3C182F0E949F3CCF
:107970001295107F810F1F9108951F93182F882350
:1079800021F00E94763C1150E1F71F9108951F935A
:10799000182F0E94763C803249F0809103018F5F5E
:1079A000809303018530C1F01F9108958091C0003C
:1079B00085FFFCCF84E18093C6008091C00085FFE5
:1079C000FCCF1093C6008091C00085FFFCCF80E102
:1079D0008093C6001F910895E0910401F091050184
:1079E00009951F9108950E94763C803241F0809164
:1079F00003018F5F80930301853081F008958091AA
:107A0000C00085FFFCCF84E18093C6008091C00058
:107A100085FFFCCF80E18093C6000895E0910401CA
:107A2000F09105010995089548EC50E08823A1F0F4
:107A30002D9A28EE33E0FA013197F1F721503040CA
:107A4000D1F72D9828EE33E0FA013197F1F7215064
:107A50003040D1F7815061F708953F924F925F9285
:107A60006F927F928F929F92AF92BF92CF92DF924E
:107A7000EF92FF920F931F93CF93DF93000082E06A
:107A80008093C00080E18093C4001092C50088E11B
:107A90008093C10086E08093C2005098589A259A3E
:107AA00081E00E94143D24E1F22E9EE1E92E85E959
:107AB000D82E0FE0C02E10E1B12EAA24A394B1E479
:107AC0009B2EA6E58A2EF2E57F2EE0E26E2E79E46B
:107AD000572E63E5462E50E5352E0E94763C8033C6
:107AE000B1F18133B9F1803409F46FC0813409F404
:107AF00076C0823409F485C0853409F488C08035A5
:107B000031F1823521F1813511F1853509F485C0D6
:107B1000863509F48DC0843609F496C0843709F49B
:107B200003C1853709F472C1863709F466C08091B4
:107B300003018F5F80930301853079F6E0910401A2
:107B4000F091050109950E94763C803351F60E9420
:107B5000F33CC3CF0E94763C803249F78091C0004D
:107B600085FFFCCFF092C6008091C00085FFFCCF5E
:107B70009092C6008091C00085FFFCCF8092C60025
:107B80008091C00085FFFCCF7092C6008091C0003C
:107B900085FFFCCF6092C6008091C00085FFFCCFBE
:107BA0005092C6008091C00085FFFCCF4092C60075
:107BB0008091C00085FFFCCF3092C6008091C0004C
:107BC00085FFFCCFB092C60088CF0E94763C8638F5
:107BD00008F4BDCF0E94763C0E94F33C7ECF0E9409
:107BE000763C803809F49CC0813809F40BC1823896
:107BF00009F430C1883909F48FC080E00E94C73C85
:107C00006CCF84E10E94BD3C0E94F33C66CF85E0CE
:107C10000E94BD3C0E94F33C60CF0E94763C809362
:107C200006010E94763C809307010E94F33C55CFE9
:107C30000E94763C803309F411C183E00E94BD3C70
:107C400080E00E94C73C49CF0E94763C80930902A5
:107C50000E94763C8093080280910C028E7F809374
:107C60000C020E94763C853409F409C18091080217
:107C700090910902892B89F000E010E00E94763C87
:107C8000F801E85FFE4F80830F5F1F4F809108026D
:107C9000909109020817190788F30E94763C8032F8
:107CA00009F045CF80910C0280FFF5C0609106017C
:107CB00070910701660F771F7093070160930601AB
:107CC000A0910802B09109021097C9F0E8E0F1E034
:107CD0009B01AD014E0F5F1FF999FECF32BD21BD53
:107CE000819180BDFA9AF99A2F5F3F4FE417F5070B
:107CF00099F76A0F7B1F70930701609306018091CB
:107D0000C00085FFFCCFF092C6008091C00085FFC7
:107D1000FCCFB092C600E1CE83E00E94C73CDDCE2E
:107D200082E00E94C73CD9CE0E94763C8093090233
:107D30000E94763C80930802809106019091070191
:107D4000880F991F90930701809306010E94763C4B
:107D5000853409F49AC080910C028E7F80930C02C6
:107D60000E94763C803209F0B8CE8091C00085FF39
:107D7000FCCFF092C600A0910802B09109021097C2
:107D8000C1F180910C02082F0170182F1695117007
:107D9000E0910601F0910701AF014F5F5F4FBA011B
:107DA00020E030E00023B1F4112339F49491809164
:107DB000C00085FFFCCF9093C6002F5F3F4FCB01E3
:107DC0000196FA012A173B0780F4BC014F5F5F4F11
:107DD000002351F3F999FECFF2BDE1BDF89A90B5B9
:107DE0008091C00085FFFCCFE6CF709307016093C0
:107DF00006018091C00085FDE5CE8091C00085FF21
:107E0000F8CFE0CE81E00E94C73C67CE0E94763C6E
:107E1000803209F08CCE8091C00085FFFCCFF092BB
:107E2000C6008091C00085FFFCCFE092C600809123
:107E3000C00085FFFCCFD092C6008091C00085FFB6
:107E4000FCCFC092C6008091C00085FFFCCFB092ED
:107E5000C60043CE80E10E94C73C3FCE0E94763CE4
:107E60000E94763C182F0E94763C112309F483C0AF
:107E7000113009F484C08FE00E94C73C2ECE80915F
:107E80000C02816080930C02F1CE80910C02816023
:107E900080930C0265CF809107018823880F880B9F
:107EA0008A2180930B028091060190910701880F2F
:107EB000991F90930701809306018091080280FF2B
:107EC00009C08091080290910902019690930902DD
:107ED00080930802F894F999FECF1127E0910601EA
:107EE000F0910701C8E0D1E0809108029091090269
:107EF000103091F40091570001700130D9F303E084
:107F000000935700E8950091570001700130D9F3B4
:107F100001E100935700E8950990199000915700EE
:107F200001700130D9F301E000935700E8951395F3
:107F3000103498F011270091570001700130D9F3E7
:107F400005E000935700E89500915700017001305B
:107F5000D9F301E100935700E8953296029709F0B2
:107F6000C7CF103011F00296E5CF11248091C000E8
:107F700085FFC5CEC8CE8EE10E94C73CAECD85E957
:0C7F80000E94C73CAACDF894FFCF8000FF
:00000001FF
