:020000040000FA
:100000000C9462000C948A000C948A000C948A0070
:100010000C948A000C948A000C948A000C948A0038
:100020000C948A000C948A000C948A000C948A0028
:100030000C948A000C948A000C948A000C948A0018
:100040000C941B050C948A000C94E9040C94C304D2
:100050000C948A000C948A000C948A000C948A00F8
:100060000C9465050C948A0000000000250028000F
:100070002B000000000023002600290000000008DB
:10008000000201000003040700000000000000005F
:1000900000000000240027002A00010204081020AC
:1000A000408001020408102001020408102004040A
:1000B0000404040404040202020202020303030310
:1000C0000303800611241FBECFEFD8E0DEBFCDBFF3
:1000D00012E0A0E0B1E0E0EFF1E102C005900D9286
:1000E000AA3CB107D9F723E0AAECB2E001C01D9207
:1000F000AD3EB207E1F710E0C2E6D0E004C02197C0
:10010000FE010E94F008C136D107C9F70E94BB0664
:100110000C94F6080C940000AF92BF92CF92DF923D
:10012000EF92FF920F931F93CF93DF936C017B01AC
:100130008B01040F151FEB015E01AE18BF08C0173D
:10014000D10759F06991D601ED91FC910190F081B0
:10015000E02DC6010995892B79F7C501DF91CF9173
:100160001F910F91FF90EF90DF90CF90BF90AF90D5
:100170000895FC01538D448D252F30E0842F90E0AD
:10018000821B930B541710F0CF9608950197089592
:10019000FC01918D828D981761F0A28DAE0FBF2F5B
:1001A000B11D5D968C91928D9F5F9F73928F90E0B1
:1001B00008958FEF9FEF0895FC01918D828D981720
:1001C00031F0828DE80FF11D858D90E008958FEF5D
:1001D0009FEF0895FC01918D228D892F90E0805C26
:1001E0009F4F821B91098F739927089587E493E0AD
:1001F0000E94EA0021E0892B09F420E0822F089573
:1002000080E090E0892B29F00E94F60081110C9487
:1002100000000895FC01A48DA80FB92FB11DA35AA9
:10022000BF4F2C91848D90E001968F739927848F16
:10023000A689B7892C93A089B1898C918370806439
:100240008C93938D848D981306C00288F389E02DDA
:1002500080818F7D80830895EF92FF920F931F938B
:10026000CF93DF93EC0181E0888F9B8D8C8D981369
:100270001AC0E889F989808185FF15C09FB7F89475
:10028000EE89FF896083E889F989808183708064C1
:1002900080839FBF81E090E0DF91CF911F910F910C
:1002A000FF90EF900895F62E0B8D10E00F5F1F4F1B
:1002B0000F731127E02E8C8D8E110CC00FB607FC2A
:1002C000FACFE889F989808185FFF5CFCE010E94B8
:1002D0000A01F1CFEB8DEC0FFD2FF11DE35AFF4F1B
:1002E000F0829FB7F8940B8FEA89FB898081806246
:1002F000CFCFCF93DF93EC01888D8823B9F0AA8903
:10030000BB89E889F9898C9185FD03C0808186FDD0
:100310000DC00FB607FCF7CF8C9185FFF2CF80811F
:1003200085FFEDCFCE010E940A01E9CFDF91CF9189
:100330000895833081F028F4813099F08230A9F05B
:1003400008958730A9F08830C9F08430B1F48091E5
:1003500080008F7D03C0809180008F778093800024
:10036000089584B58F7784BD089584B58F7DFBCFC4
:100370008091B0008F778093B00008958091B00095
:100380008F7DF9CFCF93DF93282F30E0F901E45828
:10039000FF4F8491F901E656FF4FD491F901E255E0
:1003A000FF4FC491CC23A1F081110E949901EC2F41
:1003B000F0E0EE0FFF1FEE58FF4FA591B491EC91C6
:1003C000ED2381E090E009F480E0DF91CF91089582
:1003D00080E090E0FACF1F93CF93DF93282F30E097
:1003E000F901E458FF4F8491F901E656FF4FD4918B
:1003F000F901E255FF4FC491CC23A9F0162F8111CA
:100400000E949901EC2FF0E0EE0FFF1FE859FF4F1B
:10041000A591B4918FB7F894EC91111108C0D095C3
:10042000DE23DC938FBFDF91CF911F910895DE2BE8
:10043000F8CFCF93DF9390E0FC01E656FF4F249175
:1004400082559F4FFC0184918823D1F090E0880F62
:10045000991FFC01E057FF4FA591B491FC01E859A9
:10046000FF4FC591D49161110EC09FB7F8948C9144
:10047000E22FE0958E238C932881E223E8839FBFAF
:10048000DF91CF9108958FB7F894EC91E22BEC9324
:100490008FBFF6CF3FB7F89480914003909141030E
:1004A000A0914203B091430326B5A89B05C02F3FFE
:1004B00019F00196A11DB11D3FBFBA2FA92F982F8A
:1004C0008827BC01CD01620F711D811D911D43E084
:1004D000660F771F881F991F4A95D1F708958F924D
:1004E0009F92AF92BF92CF92DF92EF92FF924B0119
:1004F0005C010E944A026B017C010E944A026C1955
:100500007D098E099F09683E734081059105A8F316
:1005100021E0821A9108A108B10888EEC80E83E094
:10052000D81EE11CF11C81149104A104B10429F727
:10053000FF90EF90DF90CF90BF90AF909F908F9003
:1005400008952091F102260F3327331F2132310500
:10055000ECF420911503FC0190E080E0243069F078
:1005600082E00895A091F1022191AC014F525D4FBC
:10057000A40FB52FB11D2C930196861798F3809187
:10058000F102680F6093F10280E0089581E0089520
:1005900008958FEF9FEF08958FEF9FEF089580915B
:1005A000CA0290E09195819591090895CF93DF93C8
:1005B000CB01EA01642F0E94A102CE01DF91CF910D
:1005C0000895CF93DF931F92CDB7DEB7698361E0C3
:1005D000CE0101960E94A10281E090E00F90DF9190
:1005E000CF91089590E080E008958EBD00000DB495
:1005F00007FEFDCF8EB50895FC0101900020E9F7BC
:100600003197AF01481B590BBC0187E493E00C9470
:100610008C008F929F92AF92BF920F931F93CF93B4
:10062000DF93CDB7DEB7A1970FB6F894DEBF0FBE4C
:10063000CDBF19A2423008F44AE08E010F5D1F4F72
:10064000842E912CB12CA12CA50194010E94CE08DE
:10065000E62FB901CA01EA30F4F4E05DD801EE9367
:100660008D01232B242B252B79F790E080E0109728
:1006700019F0CD010E94FC02A1960FB6F894DEBFDE
:100680000FBECDBFDF91CF911F910F91BF90AF9063
:100690009F908F900895E95CE1CFCF93DF930E9404
:1006A000FC02EC018BE191E00E94FC028C0F9D1F8B
:1006B000DF91CF9108950C94FC020F931F93CF9379
:1006C000C0E000E610E081E10E94C201019749F418
:1006D000CC2301F18EE191E0CF911F910F910C9409
:1006E0005B0384E291E0CC2311F084E391E00E946B
:1006F0005B03C8010197F1F7CF5FC83C21F786E3A0
:1007000091E00E944D0361E070E080E090E00E9483
:100710006F02F9CFCF911F910F910895AF92BF92C1
:10072000CF92DF92EF92FF920F931F93CF93DF93BD
:10073000C82F5B01C42E79012091E5039091E60357
:1007400080914603882361F08FB7F8943091460377
:10075000313031F53DB3309345033DB33DBB8FBFE1
:100760002CBD9DBD0E945D0360E08AE00E94EB010C
:100770008C2F0E94F50281E10E94C201892B21F495
:100780008AE491E00E945B03E501D12CCE018A1935
:100790009B098C159D053CF489910E94F502F6CFCA
:1007A00080934503DDCF61E08AE00E94EB010023E6
:1007B00009F457C08BE591E00E945B030E945D0342
:1007C00060E08AE00E94EB0184E40E94F50281E18E
:1007D0000E94C201892B21F48AE491E00E945B030C
:1007E0008FEF0E94F502C82F10E0CF3F69F4E701B8
:1007F00010E0CE018E199F098017910724F580E043
:100800000E94F5028993F5CF8AE691E0112311F059
:1008100084E391E00E945B0364E670E080E090E096
:100820000E946F021F5F143601F78FE791E0DF919E
:10083000CF911F910F91FF90EF90DF90CF90BF90DD
:10084000AF900C944D0361E08AE0DF91CF911F914E
:100850000F91FF90EF90DF90CF90BF90AF900C94EE
:10086000EB010E945D0380914603882351F09FB7FE
:10087000F8942091460380914503213069F48DBBA3
:100880009FBFDF91CF911F910F91FF90EF90DF906D
:10089000CF90BF90AF9008958FBFF3CF1F93CF93AA
:1008A000DF9385ED8093BC008091CD029091CE02C4
:1008B000A091CF02B091D0020796A11DB11D23E0F7
:1008C000B695A795979587952A95D1F72091BC0065
:1008D00024FD03C01092150352C04091CD025091E7
:1008E000CE026091CF027091D002452B462B472B50
:1008F00069F30097A105B10541F02AE12A95F1F7C6
:1009000000C00197A109B109E1CF8091CC02C1E0FB
:10091000C093CB02882399F1D091B8001091BA000E
:100920008091BC008A7B8093BC0060E082E10E94E1
:10093000EB0160E083E10E94EB0110921503C0938C
:1009400017031092160361E082E10E94EB0161E05F
:1009500083E10E94EB018091B9008E7F8093B90002
:100960008091B9008D7F8093B90080E28093B800B8
:1009700085E48093BC001093BA00D093B800DF9157
:10098000CF911F9108951F920F920FB60F921124CD
:100990002F933F934F935F936F937F938F939F9387
:1009A000AF93BF93EF93FF9387E493E00E940A0114
:1009B000FF91EF91BF91AF919F918F917F916F9137
:1009C0005F914F913F912F910F900FBE0F901F900D
:1009D00018951F920F920FB60F9211242F938F9399
:1009E0009F93EF93FF93E0915703F0915803808119
:1009F000E0915D03F0915E0382FD1BC090818091C8
:100A000060038F5F8F7320916103821741F0E09143
:100A10006003F0E0E95BFC4F958F80936003FF91EA
:100A2000EF919F918F912F910F900FBE0F901F907C
:100A300018958081F4CF1F920F920FB60F92112458
:100A40002F933F938F939F93AF93BF9380913C03DA
:100A500090913D03A0913E03B0913F0330913B0341
:100A600026E0230F2D3758F50296A11DB11D2093C6
:100A70003B0380933C0390933D03A0933E03B093CC
:100A80003F038091400390914103A0914203B091B4
:100A900043030196A11DB11D809340039093410330
:100AA000A0934203B0934303BF91AF919F918F9165
:100AB0003F912F910F900FBE0F901F90189529E82E
:100AC000230F0396A11DB11DD2CF1F920F920FB617
:100AD0000F9211242F933F934F935F936F937F93C4
:100AE0008F939F93AF93BF93EF93FF938091B90040
:100AF000887F803609F44AC0F0F5883209F4A5C031
:100B000018F5803109F499C0B8F4882309F4F5C0C8
:100B1000883009F492C0FF91EF91BF91AF919F91FE
:100B20008F917F916F915F914F913F912F910F9096
:100B30000FBE0F901F901895883109F486C080323F
:100B400051F78093140314C0803409F49BC040F41F
:100B50008033B9F38833F9F68093140385ECAEC083
:100B6000803509F483C0883509F494C0883499F637
:100B70000E944E04D0CF883909F48AC038F58837EE
:100B800029F050F4883611F0803729F683E08093FD
:100B900015031092130355C0883809F479C08039C1
:100BA00019F0803809F0B7CF80911303803208F034
:100BB0006FC0E091130381E08E0F80931303809147
:100BC000BB00F0E0ED50FD4F80833BC0803B39F02F
:100BD000D0F4803A09F477C0883A09F09CCF84E0D9
:100BE000809315031092F2021092F102F0E0E0E01F
:100BF00009958091F10281110FC081E08093F1028B
:100C00001092D10209C0803C09F4A8CF883C09F4B5
:100C1000A5CF883B09F07FCFE091F20281E08E0FF3
:100C20008093F202F0E0EF52FD4F80818093BB0091
:100C30009091F2028091F10229C080913A03809351
:100C4000BB0085EC8093BC0066CF90913903809106
:100C50003803981758F5E091390381E08E0F80939F
:100C60003903F0E0E85EFC4F8081E9CFE091390381
:100C700081E08E0F809339038091BB00F0E0E85E45
:100C8000FC4F808390913903809138039817C8F204
:100C900085E8D8CFE091390381E08E0F8093390346
:100CA0008091BB00F0E0E85EFC4F808380911703E9
:100CB00081115ECF81E08093160384EA8093BC00AB
:100CC0001092150328CF85EC8093BC001092150379
:100CD00080911303803230F4E0911303F0E0ED5083
:100CE000FD4F10826091130370E083EF92E0F0E01B
:100CF000E0E00995109213030ECF1092140338CF41
:100D0000E7E4F3E01382128288EE93E0A0E0B0E023
:100D100084839583A683B7838DE091E0918380835C
:100D200085EC90E09587848784EC90E097878687B0
:100D300080EC90E0918B808B81EC90E0938B828BA8
:100D400082EC90E0958B848B86EC90E0978B868B81
:100D5000118E128E138E148EE4EEF3E083E5818300
:100D6000128286E0E0E0F1E0A7EEB3E001900D92A0
:100D70008A95E1F70895CF93DF93CDB7DEB76097FB
:100D80000FB6F894DEBF0FBECDBF789484B58260F5
:100D900084BD84B5816084BD85B5826085BD85B51F
:100DA000816085BD80916E00816080936E0010929D
:100DB0008100809181008260809381008091810018
:100DC00081608093810080918000816080938000A9
:100DD0008091B10084608093B1008091B000816007
:100DE0008093B00080917A00846080937A00809133
:100DF0007A00826080937A0080917A008E7F80935F
:100E00007A0080917A00806880937A001092C10005
:100E1000E0915703F091580382E08083E0915303FF
:100E2000F09154031082E0915503F091560380E154
:100E3000808310925F03E0915B03F0915C0386E096
:100E40008083E0915903F0915A038081806180830F
:100E5000E0915903F0915A03808188608083E0918A
:100E60005903F0915A03808180688083E09159038F
:100E7000F0915A0380818F7D80838BE191E00E9405
:100E8000FC0284E991E00E944D0360E080E10E9451
:100E9000190260E081E10E94190261E085E00E9490
:100EA000190261E08AE00E94190261E085E00E9477
:100EB000EB0161E08AE00E94EB011FB7F89480919A
:100EC0004403811127C0E8EBF0E08491E4EAF0E00C
:100ED0009491E82FF0E0EE0FFF1FE057FF4FA59130
:100EE000B491EC91E92321F461E08AE00E94EB01E6
:100EF00061E08AE00E9419028CB580618CBD8CB5DE
:100F000080648CBD61E08DE00E94190261E08BE09D
:100F10000E941902809144038F5F809344031FBF96
:100F200081EA91E00E945B0361E085E00E94EB01B1
:100F300080E190E00197F1F760E085E00E94EB012D
:100F400088E190E00197F1F70E945D0384EB91E066
:100F50000E944D038DEB91E00E945B0300E030E0C6
:100F600020E046E067EE73E082E00E948E038BECA7
:100F700091E00E944D0386ED91E00E945B0308E042
:100F80009E012F5F3F4F40E070E060E081E00E94F3
:100F90008E030A811B81102701271027023683E464
:100FA0001807E9F18AEE91E00E945B03B80190E036
:100FB00080E040E10E94090360ED77E080E090E08E
:100FC0000E946F029FB7F89480914403882319F020
:100FD00081508093440380914403811105C08CB5F6
:100FE0008F7B8CBD109246039FBF61E085E00E941D
:100FF000EB0100E010E068E873E180E090E00E941F
:101000006F0283EC92E00E945B030115110599F3D6
:101010000E94F600882379F30E940000ECCF83E061
:1010200092E00E944D0380E10E94C201892B09F0E9
:10103000AAC019821A821B8280E192E00E945B039F
:101040008091060190910701A091080189839A83FC
:10105000AB8300E030E020E043E0BE016F5F7F4FF4
:1010600080E20E948E0380E10E94C201892B09F474
:101070006EC086E292E00E944D0311E0188B89E871
:1010800092E00E945B03688970E090E080E04AE0B3
:101090000E94090381EB91E00E945B0300E030E0D5
:1010A00020E041E0BE01605F7F4F84E30E948E0339
:1010B000198201E09E012F5F3F4F40E070E060E049
:1010C00083E30E948E038BE992E00E945B036981B7
:1010D00070E090E080E04AE00E9409038BE191E03B
:1010E0000E94FC02FE01399687E0DF011D928A957D
:1010F000E9F780E489831A831B828CE38C831D8249
:101100001E821F82188689EA92E00E945B0340E1FA
:1011100060E470E080E090E00E9409038DEB92E0D3
:101120000E945B0340E160E070E0CB010E94090394
:101130008FEB92E00E945B0300E030E020E044E0AF
:10114000BE016F5F7F4F81E10E948E0335CF8DE33B
:1011500092E00E945B0319821A821B8200E030E059
:1011600020E043E0BE016F5F7F4F80E20E948E036C
:1011700080E10E94C201019719F084E592E07BCFE3
:101180008CE692E078CF84E792E00E945B0361E016
:1011900070E080E090E00E946F02F9CFA1E21A2E89
:1011A000AA1BBB1BFD010DC0AA1FBB1FEE1FFF1F0B
:1011B000A217B307E407F50720F0A21BB30BE40B5B
:1011C000F50B661F771F881F991F1A9469F76095A2
:1011D0007095809590959B01AC01BD01CF0108955C
:1011E000EE0FFF1F0590F491E02D0994F894FFCFC6
:1011F000010001C9C3807FFFFF000000002C018CAB
:1012000000B9007901EA00C800DC000D0A00206F77
:101210006B3B200077616974696E6720666F72208E
:10122000435453002E002043545320646964206EBD
:101230006F742072657475726E00636869702072D5
:101240006573706F6E6465643B20007265616469EC
:101250006E67206261636B3B200077616974696E21
:101260006720666F7220726573706F6E7365002001
:1012700053504920646964206E6F742072657370E6
:101280006F6E64007364722D706167657220757093
:1012900000526573657474696E6720536934333620
:1012A000323A200066696E697368656400506F7732
:1012B0006572696E672075703A2000706F7765728D
:1012C00065642075700047657474696E672070618D
:1012D000727420696E666F3A2000636869702069D5
:1012E000642069732077726F6E672C20676F74209B
:1012F000307800666F756E6420536934333632007F
:10130000436C656172696E6720696E74657272758F
:101310007074733A2000696E7465727275707473BC
:10132000206469646E27742073746179006E6F7035
:10133000206F6B2C206E6F7720636C656172696E15
:10134000673A2000696E74657272757074732064F8
:1013500069646E277420636C65617200636C6561FB
:10136000726564004E6F20696E7465727275707478
:10137000207369676E616C210052657175657374C5
:10138000696E672073746174652000726573756C93
:1013900074207374617465200053657474696E679A
:1013A0002070726F7065727469657320005B005DF8
:0A13B0003A2000626F6F7020000009
:107800000C94343C0C94513C0C94513C0C94513CE1
:107810000C94513C0C94513C0C94513C0C94513CB4
:107820000C94513C0C94513C0C94513C0C94513CA4
:107830000C94513C0C94513C0C94513C0C94513C94
:107840000C94513C0C94513C0C94513C0C94513C84
:107850000C94513C0C94513C0C94513C0C94513C74
:107860000C94513C0C94513C11241FBECFEFD8E036
:10787000DEBFCDBF11E0A0E0B1E0EAE8FFE702C063
:1078800005900D92A230B107D9F712E0A2E0B1E065
:1078900001C01D92AD30B107E1F70E942D3D0C945F
:1078A000C33F0C94003C982F95959595959595958B
:1078B000905D8F708A307CF0282F295A8091C0000B
:1078C00085FFFCCF9093C6008091C00085FFFCCF60
:1078D0002093C6000895282F205DF0CF982F809127
:1078E000C00085FFFCCF9093C6000895EF92FF92F1
:1078F0000F931F93EE24FF2487018091C00087FD22
:1079000017C00894E11CF11C011D111D81E2E8164D
:1079100081EAF80687E0080780E0180770F3E09135
:107920000401F091050109958091C00087FFE9CF1E
:107930008091C6001F910F91FF90EF9008950E94D3
:10794000763C982F8091C00085FFFCCF9093C600B5
:1079500091362CF490330CF09053892F089597555D
:10796000892F08951F930E949F3C182F0E949F3CCF
:107970001295107F810F1F9108951F93182F882350
:1079800021F00E94763C1150E1F71F9108951F935A
:10799000182F0E94763C803249F0809103018F5F5E
:1079A000809303018530C1F01F9108958091C0003C
:1079B00085FFFCCF84E18093C6008091C00085FFE5
:1079C000FCCF1093C6008091C00085FFFCCF80E102
:1079D0008093C6001F910895E0910401F091050184
:1079E00009951F9108950E94763C803241F0809164
:1079F00003018F5F80930301853081F008958091AA
:107A0000C00085FFFCCF84E18093C6008091C00058
:107A100085FFFCCF80E18093C6000895E0910401CA
:107A2000F09105010995089548EC50E08823A1F0F4
:107A30002D9A28EE33E0FA013197F1F721503040CA
:107A4000D1F72D9828EE33E0FA013197F1F7215064
:107A50003040D1F7815061F708953F924F925F9285
:107A60006F927F928F929F92AF92BF92CF92DF924E
:107A7000EF92FF920F931F93CF93DF93000082E06A
:107A80008093C00080E18093C4001092C50088E11B
:107A90008093C10086E08093C2005098589A259A3E
:107AA00081E00E94143D24E1F22E9EE1E92E85E959
:107AB000D82E0FE0C02E10E1B12EAA24A394B1E479
:107AC0009B2EA6E58A2EF2E57F2EE0E26E2E79E46B
:107AD000572E63E5462E50E5352E0E94763C8033C6
:107AE000B1F18133B9F1803409F46FC0813409F404
:107AF00076C0823409F485C0853409F488C08035A5
:107B000031F1823521F1813511F1853509F485C0D6
:107B1000863509F48DC0843609F496C0843709F49B
:107B200003C1853709F472C1863709F466C08091B4
:107B300003018F5F80930301853079F6E0910401A2
:107B4000F091050109950E94763C803351F60E9420
:107B5000F33CC3CF0E94763C803249F78091C0004D
:107B600085FFFCCFF092C6008091C00085FFFCCF5E
:107B70009092C6008091C00085FFFCCF8092C60025
:107B80008091C00085FFFCCF7092C6008091C0003C
:107B900085FFFCCF6092C6008091C00085FFFCCFBE
:107BA0005092C6008091C00085FFFCCF4092C60075
:107BB0008091C00085FFFCCF3092C6008091C0004C
:107BC00085FFFCCFB092C60088CF0E94763C8638F5
:107BD00008F4BDCF0E94763C0E94F33C7ECF0E9409
:107BE000763C803809F49CC0813809F40BC1823896
:107BF00009F430C1883909F48FC080E00E94C73C85
:107C00006CCF84E10E94BD3C0E94F33C66CF85E0CE
:107C10000E94BD3C0E94F33C60CF0E94763C809362
:107C200006010E94763C809307010E94F33C55CFE9
:107C30000E94763C803309F411C183E00E94BD3C70
:107C400080E00E94C73C49CF0E94763C80930902A5
:107C50000E94763C8093080280910C028E7F809374
:107C60000C020E94763C853409F409C18091080217
:107C700090910902892B89F000E010E00E94763C87
:107C8000F801E85FFE4F80830F5F1F4F809108026D
:107C9000909109020817190788F30E94763C8032F8
:107CA00009F045CF80910C0280FFF5C0609106017C
:107CB00070910701660F771F7093070160930601AB
:107CC000A0910802B09109021097C9F0E8E0F1E034
:107CD0009B01AD014E0F5F1FF999FECF32BD21BD53
:107CE000819180BDFA9AF99A2F5F3F4FE417F5070B
:107CF00099F76A0F7B1F70930701609306018091CB
:107D0000C00085FFFCCFF092C6008091C00085FFC7
:107D1000FCCFB092C600E1CE83E00E94C73CDDCE2E
:107D200082E00E94C73CD9CE0E94763C8093090233
:107D30000E94763C80930802809106019091070191
:107D4000880F991F90930701809306010E94763C4B
:107D5000853409F49AC080910C028E7F80930C02C6
:107D60000E94763C803209F0B8CE8091C00085FF39
:107D7000FCCFF092C600A0910802B09109021097C2
:107D8000C1F180910C02082F0170182F1695117007
:107D9000E0910601F0910701AF014F5F5F4FBA011B
:107DA00020E030E00023B1F4112339F49491809164
:107DB000C00085FFFCCF9093C6002F5F3F4FCB01E3
:107DC0000196FA012A173B0780F4BC014F5F5F4F11
:107DD000002351F3F999FECFF2BDE1BDF89A90B5B9
:107DE0008091C00085FFFCCFE6CF709307016093C0
:107DF00006018091C00085FDE5CE8091C00085FF21
:107E0000F8CFE0CE81E00E94C73C67CE0E94763C6E
:107E1000803209F08CCE8091C00085FFFCCFF092BB
:107E2000C6008091C00085FFFCCFE092C600809123
:107E3000C00085FFFCCFD092C6008091C00085FFB6
:107E4000FCCFC092C6008091C00085FFFCCFB092ED
:107E5000C60043CE80E10E94C73C3FCE0E94763CE4
:107E60000E94763C182F0E94763C112309F483C0AF
:107E7000113009F484C08FE00E94C73C2ECE80915F
:107E80000C02816080930C02F1CE80910C02816023
:107E900080930C0265CF809107018823880F880B9F
:107EA0008A2180930B028091060190910701880F2F
:107EB000991F90930701809306018091080280FF2B
:107EC00009C08091080290910902019690930902DD
:107ED00080930802F894F999FECF1127E0910601EA
:107EE000F0910701C8E0D1E0809108029091090269
:107EF000103091F40091570001700130D9F303E084
:107F000000935700E8950091570001700130D9F3B4
:107F100001E100935700E8950990199000915700EE
:107F200001700130D9F301E000935700E8951395F3
:107F3000103498F011270091570001700130D9F3E7
:107F400005E000935700E89500915700017001305B
:107F5000D9F301E100935700E8953296029709F0B2
:107F6000C7CF103011F00296E5CF11248091C000E8
:107F700085FFC5CEC8CE8EE10E94C73CAECD85E957
:0C7F80000E94C73CAACDF894FFCF8000FF
:00000001FF
